{
  "_comment": "BYTE-LESS regen (Phase 4) from the live e2e coop-close 2b559965 \u2014 a real node-accepted tx, not a dummy. No nVisibility/nAssetType on the wire.",
  "raw_hex": "020000000001015c0348c1a6df31165a642129ca54e3a507116f14fcfc19630ebc1515b0b50e8c0000000000ffffffff01009d693a00000000225620a335d839fc1ebeaedc79e404c69cf609370875bcd6b71b2459e378795f3498e806fd75096028767b5a688b4996936cdd8875719fa58be2cbf85be39ed31bd12fa8797bba00fc0a3e99547aa6f7630d02905b54959dce65c4e4836b27c0a236bafcd0a7ccf74ceb8c5d18090a7e3b65c9af50fd2102a2b6337a36904930b9145b91f69baa54608fb2eb11506c47c451f6da052619bf148a59d30b40d7fcc8c510fe109231ab398cc1edbd5ccda7acfb7fb08a4160d15fac991827cc17ea8fb27bf76092d84b620986f3cdc75928ccd09132cfc265ed742c7a55c99a9aed83dd89e6b360dd66beb714e4ad92cdcb41ad3c7280d70ecc9c54b1d09e08f149d6244d9542422276e899dcea4fa2dfbca81ffb311681d73b2eeb74142248e18daa2487d7d7e768cd88bd0a45d73f3d647b1e1077bdca3a66a7b3effa6f3dc45d3c338715fff77d0ee98dac2d31842d812f4a4818ba171c42e6c4635c7ddac3754dcbde0940bee9e430d75f317b8a804ec9d05bb81110c40dcea989230152beb1890b66a71695cc795138b6f42893e5a527d80e18a5096b399d90fdfa4be6ebd953745893a22fd983d42519bde8c94cb7322b9826fa5cf19ae04a3cbbcfebe36bf9be6e73d2cf701cc4d472f1cc884839c3d3b6b29c9bfa15a7ec153f8dafb748a1babf048bb9d2249cbeaa2841816b10ec40e9157587ebb096ec3f3b0a450619dc286e0dd9e60c55ba18b65f18838348c12fa603d7c32142e3634aa3e129aebc18ab8282099ae39bb42ec858a44d00fd09a0560695010129032b5d7447eb1e90cf35665882f91412113760ff4dc98515ad89e6e2e21cfe43bf92223f5648830cc681b4978c5bfeb5ab71cd887252109137979624399337ebf0600058dc6d3d7082330cf9c28357911151e466c5877a8ea3907ea95dffcc1059543bf1e8af0b1614d8603295dbd6c9107c4bea42c1508e12bbfa898ebcb2fd8d45784787da19aab21069f1c8941bcd5c0995513a8d7dca97d1a9e794fff2cc5dd6fdfea2e6b9f60a64ce368475affa556523ec090c47816f02f484755f6a3856bc7ed0c20608e722568ae927981a639b59a2a54b774b8f1a08508d905d1e168b455f0c8c7fc6c6065d72eb2d7018bcd0f954e2594d977b806fa68b42ff3361dafbafacada666d90f9e69cdd7cbc7a40e74f7522284ae695c6611e6265d45730b25a667ed2da6ac8c4c8585b2c40b8176945a8c98369ce4cf844b9e6bef932a4b2e9f01df5ec50d55d9d8514fe1dc796eee11c57fa39a040ccb44e0a6d6229a049717d4fd50c6ebaa9aed9659e6d8c5d17bbc5be821b88e5c1ed4ff8790c87b83f449ab0cdf810800ea23972c60cd0c333cb34234f3b6d2500031d885a876d50eca7797525824998885728942847b75e6c7022f74194d57e3d26e97a5a0ba541bffe01b989010fa67ba4851a246158db53f792e85fb453995869b6093ff296feb87a359486a431da203fe9d33c399a74ee2fb082694503f00fb919cc9f49ddf8b3270ef35d704b9acb0864c47bbaa8484ed8ca39f397f15d4a4d4187d2614c56d3094a6fc03f4509fd99d98c8382b0d12941a9f1c7087aeb4a2da6b3e8391001dabfae1f7f5b93092e3d2cf7a6f0f7160ce4b2941b0db499c151e4590815ac45b7dc28ff47ed9afef2080d2bb62e2f9718f71861ae0d32e84a113711fad528f06f5892e2430764aa9313b6244962c1460711222f4219321d797aa7c0b2d42ef2fd661e9e3e3ca03c248b3175c2083aee372865707f470446693caae296c0316e32c425d1556b201001474a14645425386b3e553806383a3c957749367e251cc3d061054dc61013dc0467cd9c8f755ba6f69e4a17d60d6267020d100f373918ce7f625b278f1d4f2fcb01f21d988e672666dad4846fe4b15bc70bb5b4848d186e4838bc3397f20f44c912edfb4c71733d8cb9b42f65dddf8f9542e0d87d5ecd1a86720d5209dc6aacacfb6364bb8c7846d32206feb71ce2831c399efb4b2f1cd47a6daf5441f2741ac923004826b1bf8966faeb7375a5e6dcdae8eada3fb10df7e66821b7df23223abe0baf2dbb720ef5363c6b2acd0418ce78ba12da5e6ea61b88546afda40cf07504f47db2f15106deadc7cb3af6c0d9b88e5fceaab8362ebe6734d08b35d62de40a88e6641d5c2f23792f643dcee60a750af3564d06cab7e835cb0f9f1f3c9b2289ae9668b01ccc0b06b99b0fca1b24ab4beb1591da1a75d2f6e145646f0fae155bd1944bc5ee20c1d27d089c62187e40af187aadfe7f50269fc8c7a9bf774e1aebc07a08fa09b9178faa2e1887c9b103eb045cff3bfa0428368ffe3c6d48365e4cb91ee140bae460b30972eaf433ee39de4a2dc19b326b13c2e81771f5dd2c1d229809780d07cdcbecf54cc60d2fdb00ed14a6046b671503fdd064b8e1ec4e74246cb7b680cc5254b9fe867b0d32f8895757b6118d846401a2954630db296a9cdb1c745d28fb4673d2b571d7e19405a0d52208a919e0f8039eff22c310b977d55ef29f682ab89c1984aa4f05fb72b07082f9a794d4424a2029c0bc7dd7c2d49a8f4bcf44888961a275cd80177707de080f3bfe3069dd2593fb97b4f61f2c4073e128ab8c896166d0d18e99a2c3f306d520b4b35c0d199222e545340ab3af18cda5af3abb784611f0deacc4a83e87ed7b97f403eaf0433d26820137c6741cad441b337b6d76a5ac8c20187dbea4ca6375e9e43f17cffde521f19305c2270a597fad9606ab8cbb104bbcf9d33adbaa9e193b7551a808d3db0835796fa3c05b8e03a8675b4082657fd83f26842bc3eebb9e745424cc5d4bdd6957440db66f1f8f1bd8f7b90541c67066124c0366254cbd472757d12748b5a690821b760c0124b886c9f5cf6868ea2066ade590ac256b85587705521b40511a875617f4fca3087b805b4a562a1d4f2122f1b5db1f687404244348fd7b2d90474f5586271b44c6dce2d5687f7040a93f6d2d906dbf228c40dd163764dd7784b2db55ccd4a5b898943c71aaa45b7489b66f7b552f17edc898d17e696cbf74693e9cc528efb6cd7a98f8201a6e33729ad434d24da9576a30b7e769b57578438929b7b6bd784efdd029e5d7b385b04eaefeb793cf91b73f6f7909cc38ca9ea4b57a957d1a891d7ba54a218f51a18b65f8596feda58e3188fbfb4307c6700373aa941edfed1831b501da61b70f0c664817f9dd27c7f8cc7b93f776b84fe0e730d93eb5bcacc72a1932caa466f4b6cc20fa637f42129acd04876c252652b9feca73a7a3065e4885c23d9b2713688aa5b06e0721b243b5753beea9e75fe51c8c0024063f758938d4f6e83dce5ca7cc1062e8b0812131d202f5153606c777f81868bb0bcbec2e0effcfd114b8d8e939abcc7fb000714505d797a8fdb01242c39425257747f8186899498a5b6ccd9e4f2000000000000000000000000000000000000001720293d01fd2005ab014d5213379135d637a69ad36f5832e48906c15f620d73a14a2497c173d047012eb4e2de5691a487ac44878757baa3e3a7e1ccaf8b82f2bd3a255ee960b942937400f22f12b803cb332220e823cc42e13988bd83cf44003672bad764873c3080d7f200c80ebc30ebf15633d06eaa176843af3fcd27436288f2ceba33ef4c9188d4da2f1981bbcfb357120f03fdce84ddb5a4c20bcd2051cfd0e91d8062bf6ea52c0286153214854cd2594cd9958fbef590ab916592c9145e70645bd95c2c22fee20d2988571ffff0c14a8be2f753809048b71b5feda51bef99654fee0b00ad348e8ccdb07ba3e6e3f85e30e40c89d12b9fefbb17cc2b21ec3e8d07ec838bb299ab85438c9909480f075fe9a0f25560efdf6865e4cbe71a032ddc9041ef218dd0a026976756d2575c27c702db190cfd83839fa1e41e8d28c9c4663c8c58aac2ade70c40a9fe602bfa1945fcf7df128d8f24d6702bf52ca048af5b626de350274331f7a2f568d5ab0d0c55a235eb469a7bfa076d2632afb3f449c394e16d01ecced2ccbef9f6176e8caf88be17c9abbb3b253143c41537095e30d0ac0707a452e2baae8cb8d3f64b841725776366a53f53a3fa26e8932f8476237969f9d693ec27ff1b486a3a86950aa4279c096f1bf9e4e51d0ff3352b930090dc0c5f4fc628a4e0ce6444315951ba7cf235872096a3ecdadaff64e661f02ad52fab54c837bb1576638a4d2b25624d5db12f8cf0a3e5627e82b840375907c24426bd081e730c3784d0d188ca9f5a556cbd0a83fa0413c8f996af720d172dde38e5244ad186b77bd9754a596e72da4ed6cd65f67e6c98cd339ddee10280c3e3fc4a71832caf4b4f27bf3fccc379923ba7d1cbd8bd6b3fd9626af7e5ff224f5698cd2c6d429faea45fb98f9fce5e1a43b154de3bb241ff7c83da0d1efa6394166a532f49e1dde9b0f05f4e1af8e8fcbe116cbdaedba9dd32ca710240dc38cef9e0f0279686e9aa2149fc12d661be60bca9b896b21eab9ad4c4f490c9366804dc65d442ddf3cde7b32a7f801deec6d4ca26ffeb8ded306ce4e6c582eb8e46c54f882d7a0af9d636eaeb1a20f02ceda1982555fea118d3a900722540b54704cf5538f917eefb7518cfcc013d3cf983a78f307b401d03e14dd136eef8020ec284486676a2adee0df4e59b12b62792149260e41945904c036a4ebc74b90467e5e563e9df0d9ab6ba76e234bb94e12d8d91b2ddb8e895f1fa004d67e47d18a21b7605ee537f26a0cda5eb618f94c6fbfe1ed2ffbf6db4a761e3b5ee560d68bca0113aca50d59b94f795c42fae778c5d7d4f7791d320f3987ce9341beba2c15fc0717c5d7fc38565180760c2579c1b50990bfc36d373fb113658406a2e4ecd73d38b61b434648a40bf6fb091a9e5ef1388415ea095bde861a98f8e2538ee1229b480418adb262e013099826d4c1668afa1f7a7ba7247745760d155570a93a704e9e10d31f2d254a1b53afe2f811887b7a327c052489da68ef8b92dd4ecc9f7463a6ccbb9a2ce2d7dea6a4174deff164b41927feb7fc694144491fe73fdbce1ef3867ed3c4fb083b44c846bb1ce827ca68b18f9a7b90ee130a61954997e2d7171d3b853f33f4e2efd83962509d03c496a53fd2521d4e8fa65f36710bdef763703fb1824937264992631dda8075b4a9fdf0c5c064f222dabca2081971501fd081da13905d2ba407aede1c4ed5b3993a23c3ef69fb4cc8ac682a40cae141f82b4c8a85a04e595446a7daa4df1bc50150b7066cf630fb36485c40d04ed6b82e8c085768a705a0a0e183e6899df2ee80ad55d8e7008f0764711de251e9909d9d9c1f0675b96f09043ae5c5947fd75099863d22565f22149931c77eeaef0cf7b3b99fa6d9c8cce34b733b6315fbc5f9922a13c18a13b456422a5278d8d511b3d13dc4ce134bdd2ca61743eccbbc7bcd23f0afdab59ecaad624688db936ef76de9e23d6fd4a45d472526d46e80af357a9f533d0414c63f9b06f9acbc115150d6b298c342c98f28d3c249debb8554de4f22f81e37e809cb8264b1f3d3da5a36a669b820c1d381c4f3501053e48e4c0b9aa91bc503d933ff31d7357fc01ee870f1d8ae471eebb54e119dda1108fda9c7358d331095ba424f4202c10db29f064806f84919f98d2d60e59b1928bdced338f58a4c77fcff668f1dffeface5bd13c6578902e198019720f23c7f172fbfc51ec069f80d3b23ae06267a703688015edc85cef0c8f80835d462328fd2c838c35e1fcef302de553e8b5962388456ecae1d0443ca95d393fb5337e5406f3f2a864e824173e81b29dd67afb3169477ca12491fa876bbe2bc526965a8bc6183c6077676131179f7e801a7f64b5140f3c648ae25a0b76764bcf6258361800adaf1ff8f26258b8b615768f12a6b518ec8367d0867efe776c2a6ca87f4be791c297064461f55593f171694eb2c64036b67f5136d01ed9f4f91536b88f43f7d1bee9afa391f2d8fad2682de61c10b0bb45d40142d880068a779d714c9612473eba29dd6c8e142a335148b5941564d6207b542534105c38e8baa68d4716ffd1aad517c7fc5ca7315dbebb4d51e3d989fab5147e9e3388b3d169a7884d72cff07341aee8d6ae031090dfc36ad6d4ba2dc86d3d90de625171e12fbb04720ce4ae458b6d99722dc8871201b41de9794bc2fd6688f766806979691ec531f3b358d73316403ce283bb13cef6f197921491b1fa5797b8bbdcf55c09b0c7de80dc1204c7a4dd071c88986f5a15016971d6d08bf26d5fdd53251e8e97f18c7069c0ce6f4c634ac418ab8445cfde626f473b9d943bef18b4fdc9319d7c04c544fb3da04e8c040bf5a1fcb82657bcd9c490500e712d67db6b18b0372eb40e6125e82aadb609f283ab0d21938c262406a5a725af6fcedf92f8d3f13b2687ef0745c684bbd1733ddf80d6834a62c59f722b128272bc5b3eedba4d23a6b847e7e493b962d75249d29b59702201e5603317b08d4fb4525e0e5d43dedb1f3ecdaa68716920d5b94fa2bc6945fe0c9aac20a521dcfe8c2bcaf93f993b9f0a1f2fed805a7d7956e1dc58e29e440aa06c4a634cf327dc04221c38b7717566448b31487ada164d844f5050bd5a83c9c635e21b5190bbaf60fd25c8361085956acd6a91765615de92fd6165526b45732994e591012c279426fcc3f693c86d7ab16b3ab1c66e424a385f943a6a433855f5fa8219f2bc430bdf53afe177c4d8564eb0d17a29f870b35f4e358d6849ed5fd3629d36172884b5931e91253b9eba4a73a7a71015fb1c49283eaeb0cb1b201c430ccd8790d17317cb361e895a2bd72187bd2398ae7f914737bd9c714e791bfd9fad0a57d45cc4ac0d6077f97993c426d6775ec3ca35c9b185181c93b9dbabd4c0e196c51047654da278ccfb15c4c5f7f5731a3e2698e5f30d2db11d0f194f6f73b4da0d016f952678e142caba5ed7468fcc46e51668dcf8dbe644489d0d928f93e9d5c32c827b391995c9eefaecb0fe7dfcdc3f79efec8f58d825246e67150d4b742db519471af5c24b2d0a95af8e893d37db29b095ffbd2d69080e5ad814d2555b9b1fbfb41aa13a259fb3dd47f376ef630c80a3c7641969b6df5cab6e6c7b0f3e3d98b3c0fff5c7bd53bd60b21d24219c33aed51960a714edb70f21de1a90145ffa5b29d0ab31ca0c63e94a5977cd9c18076c5768cff79917df52776660ceadecc25139191c8b1c14686f0c6560791c5fef7caff883ae7ab37d94dc9fefb6edf6efe7797fe3c0e12db37bc86c80e4c8f9e331f58e3824d3f1c48f3a22a7a4cc740242fb63e6c5dfcdc43bb2beb02984fc046b3d17e80a16cbbedf9e0724b138419fbadc5c867acd90148ed9a690abe453bef1d79367651d375c7f014017ff9875c7bf5d4f22955772e38c3c58fdbebac256cd2956aff13e38c0146653268b6114090ed4bae4a2edb8a848cbeae0aa1cea99e3723b454f913bd7f3fcf5678b8f164d4bb7cf01caac0ace788e4b921dddaaa68858d8ca61d715ece4c8cd1585aecd8e35fb1b9c13217f3e8a1b203e88de7f569128e96eb53eccca444a7c0c6b29ebe31bd9e433e0034b8bb4a2c7a975707a598f78de49be5897142c21162b60bab7eeab060f4549876c05c4ecfac55ebdd671df6a39933e8af8fd6b2dc9f96399d9dbc9ddfcfccfd63e4c140c95f2bb54031b14ca055342c3ea9f703e6288e88fd194d995941cc361438fef98c393040aa1ac02f01be0e17592bb4a0014e3a1b05f7305a3af76b6d93164a9c426c6c775cbcedb3ddebbabeb0b3a5b36fb572ba7e2d976990cdef6bd4edff06de4b88616cce1d639c18a2cd53e66cbd1107110f289dc0424d91a8bb8ab55a5afd36e5fe48d41c8bbfe2b66a0b19429d7823749563ba7e525dde30ba6ef7df7bead0082376f9ee0b0d93648bdd787c7b60fcc0376dee732958b50aa9efa14caabf869b3e8866aa3c7bf5a53a5715e82851394d284350b5031e3e05ca9c2b76a4dad38f1f42882518d65af360200ba6bbf3282bc6dc7b45ea2e931367c682b60642832bd4c1dd4aafb0268bd1da3729665d3068f602736214ab2666c19e7a3413d1f9233cc26f30ee5072462e5044095d70fa3ac746bec6926fa82465f057f4d729b661de49e246333c403ab0297fdc78d4b2aff829bd99f12e0f90a37adc45e2917699e4327bec3c3b67a643c6f32183e3c7586e4325bc6d37ee0e6c45d2d29f3e67a5bd278f53c3364a253b1adff157d79f49f98b6ca4ec523275ecf735b61973a963fcbd5b235b2640d050a996d2dc66646e08733a2b9622cb714b38224ae3cec2ec798a378dd5b6e720334299726e388f636dcf3dc1a48106b3da078c6844cb2d55e24194fde36fca5c8fb0423355bb58f29e9ddd00184bfeece3c1adc1b832d1fffe5c40eafd515774fc231896e5576869062a84dc25ba688d85a38fec4300bf27365694c8cbc8b355d81623fa94ea4dd1fc5ebd8b55d6c00e805a9274112cb92826b1427f0d9550ad43d9fcae91b6536a2e9deb26fa2d4e090ae29a424a7d0b55662cd0984927f357ef89117f61809543d1e755671dc59bfe704b8d970fbf41066d0c253b1f64e201f2cf1a96243e0fe826a05a11d73a9230dc036a12e6f1e09ed5fbb3c45c0c2b86849e9e22c3668b61974070916343c3d3e5574768387b8cbcfd2d9dcdde3e7ed073f4e5d636d6f79858a8e96a1cbeaebed185d7a85949cb9c3caf2042a2c3e6b7b839d9fa5e1e4ebecf0f9fbfe000000000000000000000000001627314301fd2005c3772465102fc6252a2bb49591122a571458810687fd39173bf6b6c0a67d0882874ccdee3008b50008dcbec1f619b4482be77f5f7b18a177f9a7df7f8bf3a2d03a1118ac14b726ae734486c5e3836ab50471eb320d1ca79b636378bb0eb3b635fe98a3e88c252acbdbf72bbc72ade10f3154fe1f4b6bb3e0f72642f1f924549bfa0193d6ad9566d99c866d46e0a62989c35ae7366f8223908d2f8e9917cea359d2be6a42430090cf3c41a5cb26a9ead447e09f2c1966022501e27315a5a20598f47394c46bb997645256402c870a28c977001a7b15ca1446e9941160922ed279edbaa32163e407f2292f32f80c465fb170dbf6ec1cbda9cdab830adf4d55bbd0b8fb8c7749bd8ba3fa7276d2ff7ba47f0e093bb6d0f774635aa5f9ca833b4f929c557f8029419158a9e9ce8a913154c3472a7e45bf258c202236b5179d5e4c90a28f033c50b9dfe66f2c194b81369daa01b70c193ec7e21cf8405ee1378f7194736b947381cc78e0ac151fd0b84864bad11679e3cb68646bdef95951616104257560138cdca753fb928b5648444642fdd6018cbd62dd77d4df37e4299f78efd221a49da5f0116356a9176b1b191c2871e036d576e957a31e7149d10ea14fbeac9ffb2a39d8e307d6f2ac89854e7a2b131d5d3a4f1e49459fb0cc66a30ad14ee60d906d1a8003d92d76eb36c90bcfbcf8b72f86432cee1ac0cb10b215abb438d9e404ed1dc5a38984d11cd5d404c6a26c667e5c364c8a702eb880191e2f1d37d0f7a12f49c78cfbcfbf63fa0d879b6475a3e326f118facfac172cc0dddd3bedc9e9c69fe0814d41b4b61a121d08c2646b79e5f107d8d98cc47df8ac7c5bd96479a19a43b39e2fdc97e36cbbb7bf60191058b8e9cc40f88d1192760417ebaeac37457242de45b3e046ec68e0bb1cfc693bde9bfdfcc0a5c8021da7a8997d089dbe8ad860902c341b9036cc075b40a58f1ee451d54180d2a6373d08b3e40007c815969c03fb32a433509f6504b441c5f03e38c73121d1bf933899be78b870b46ed4f2730fa868f71ad022619eae794f1926cfb01e006556367f0f3f2d908325c5b1f79b1601f4ea307b4486b5d391d7aac8e5f569cf500ca200569f20a5e98cc72482c0628153f053d4182b607a3773021790475643a2441856305e40b810aefc4b9912367bca25405d0bbe9f094691698fe3feb623ea7ca8a5db48bdafb1431560f31d7c04b75d82e5079dc99fe49d84b195b1c7bef652795258f27732420ef24b93d8a778a044f38dd7ab6fb5f899f42b4d7c246f3154163683bb4fe2faf06a1a81e4a59d4d17d75777c87635a19ad4add9a01df0c00e72ccbe9131eefd0238e86572657ba8f995720a821df94810649d6f244a41c303773c5bf5692072e5e2da83a4650cbedb7dca5d5ce4ff51d83b97c7b7025c5abf2db2551cb594d131149e2620696309e5d119cb068330a4b0eb98ecf440e470bebd48603d37568f1c78aac1fb4cae6afb0a807f02c706e710e63eca5020c5ace1f163e0c48b76309027d5bd3631bd12c595d7bec63b2d8ecd2210eea80874128948c38e181dc13bcbbf04e62e20fa46519295bf83cbdddccbe89aebce6fdc5349c0ca14c7801d4b8e0d835a9c5232b30edebc02f3342a2868177f9868761fa79d631ebb550c12e282bd5c70d0c9d82478e7a01e0c149dc5960003fb382e482fa27cb3476f7731d54f3facba57441e6a5c487fd346bee9a5b80da4540908ed36033b6303f8061a0304cf599d36b3383a88e5112be1e302233d215e4add1bf996b2714da4055e83eaf32fceb3e40d49b7d0d18192567ca5c1ef2319050fee4ecd1fb1e49cf399044159096b45205e5ab86e9c41740e1fd70695123b81081fccd8c935cdd94d1b22c14cc6fac151b6208811e96a9b1b0ffe4c3be21c50d03f0360c07cb42c07242b84fbf486022c9657b651fd210500ab014d5213379135d637a69ad36f5832e48906c15f620d73a14a2497c173d047012eb4e2de5691a487ac44878757baa3e3a7e1ccaf8b82f2bd3a255ee960b942937400f22f12b803cb332220e823cc42e13988bd83cf44003672bad764873c3080d7f200c80ebc30ebf15633d06eaa176843af3fcd27436288f2ceba33ef4c9188d4da2f1981bbcfb357120f03fdce84ddb5a4c20bcd2051cfd0e91d8062bf6ea52c0286153214854cd2594cd9958fbef590ab916592c9145e70645bd95c2c22fee20d2988571ffff0c14a8be2f753809048b71b5feda51bef99654fee0b00ad348e8ccdb07ba3e6e3f85e30e40c89d12b9fefbb17cc2b21ec3e8d07ec838bb299ab85438c9909480f075fe9a0f25560efdf6865e4cbe71a032ddc9041ef218dd0a026976756d2575c27c702db190cfd83839fa1e41e8d28c9c4663c8c58aac2ade70c40a9fe602bfa1945fcf7df128d8f24d6702bf52ca048af5b626de350274331f7a2f568d5ab0d0c55a235eb469a7bfa076d2632afb3f449c394e16d01ecced2ccbef9f6176e8caf88be17c9abbb3b253143c41537095e30d0ac0707a452e2baae8cb8d3f64b841725776366a53f53a3fa26e8932f8476237969f9d693ec27ff1b486a3a86950aa4279c096f1bf9e4e51d0ff3352b930090dc0c5f4fc628a4e0ce6444315951ba7cf235872096a3ecdadaff64e661f02ad52fab54c837bb1576638a4d2b25624d5db12f8cf0a3e5627e82b840375907c24426bd081e730c3784d0d188ca9f5a556cbd0a83fa0413c8f996af720d172dde38e5244ad186b77bd9754a596e72da4ed6cd65f67e6c98cd339ddee10280c3e3fc4a71832caf4b4f27bf3fccc379923ba7d1cbd8bd6b3fd9626af7e5ff224f5698cd2c6d429faea45fb98f9fce5e1a43b154de3bb241ff7c83da0d1efa6394166a532f49e1dde9b0f05f4e1af8e8fcbe116cbdaedba9dd32ca710240dc38cef9e0f0279686e9aa2149fc12d661be60bca9b896b21eab9ad4c4f490c9366804dc65d442ddf3cde7b32a7f801deec6d4ca26ffeb8ded306ce4e6c582eb8e46c54f882d7a0af9d636eaeb1a20f02ceda1982555fea118d3a900722540b54704cf5538f917eefb7518cfcc013d3cf983a78f307b401d03e14dd136eef8020ec284486676a2adee0df4e59b12b62792149260e41945904c036a4ebc74b90467e5e563e9df0d9ab6ba76e234bb94e12d8d91b2ddb8e895f1fa004d67e47d18a21b7605ee537f26a0cda5eb618f94c6fbfe1ed2ffbf6db4a761e3b5ee560d68bca0113aca50d59b94f795c42fae778c5d7d4f7791d320f3987ce9341beba2c15fc0717c5d7fc38565180760c2579c1b50990bfc36d373fb113658406a2e4ecd73d38b61b434648a40bf6fb091a9e5ef1388415ea095bde861a98f8e2538ee1229b480418adb262e013099826d4c1668afa1f7a7ba7247745760d155570a93a704e9e10d31f2d254a1b53afe2f811887b7a327c052489da68ef8b92dd4ecc9f7463a6ccbb9a2ce2d7dea6a4174deff164b41927feb7fc694144491fe73fdbce1ef3867ed3c4fb083b44c846bb1ce827ca68b18f9a7b90ee130a61954997e2d7171d3b853f33f4e2efd83962509d03c496a53fd2521d4e8fa65f36710bdef763703fb1824937264992631dda8075b4a9fdf0c5c064f222dabca2081971501fd081da13905d2ba407aede1c4ed5b3993a23c3ef69fb4cc8ac682a40cae141f82b4c8a85a04e595446a7daa4df1bc50150b7066cf630fb36485c40d04ed6b82e8c085768a705a0a0e183e6899df2ee80ad55d8e7008f0764711de251e9909d9d9c1f0675b96f09043ae5c594700000000",
  "txid": "2b55996559158a5e74f7a18024dca4aeaa13ea63c3ab33c9d6419a85e0914149",
  "nVersion": 2,
  "nLockTime": 0,
  "input": {
    "prevout_hash": "5c0348c1a6df31165a642129ca54e3a507116f14fcfc19630ebc1515b0b50e8c",
    "nSequence": 4294967295,
    "witness_item_sizes": [
      2421,
      1312,
      2421,
      1312,
      69,
      1313
    ]
  },
  "output": {
    "value_sat": 980000000,
    "scriptPubKey": "5620a335d839fc1ebeaedc79e404c69cf609370875bcd6b71b2459e378795f3498e8"
  },
  "witnessScript_hex": "205e5ab86e9c41740e1fd70695123b81081fccd8c935cdd94d1b22c14cc6fac151b6208811e96a9b1b0ffe4c3be21c50d03f0360c07cb42c07242b84fbf486022c9657b651"
}
